{
	"data": {
		"bytecode": {
			"linkReferences": {},
			"object": "608060405234801561000f575f80fd5b50610c368061001d5f395ff3fe608060405234801561000f575f80fd5b506004361061004a575f3560e01c8063292a45851461004e578063ab755faf1461006a578063c6f1532a1461009c578063c72ef41f146100b8575b5f80fd5b61006860048036038101906100639190610606565b6100d4565b005b610084600480360381019061007f91906106af565b610168565b60405161009393929190610763565b60405180910390f35b6100b660048036038101906100b191906106af565b610303565b005b6100d260048036038101906100cd91906107a6565b61035a565b005b600160405180606001604052805f54815260200184815260200183815250908060018154018082558091505060019003905f5260205f2090600302015f909190919091505f820151815f015560208201518160010190816101359190610a28565b50604082015181600201908161014b9190610a28565b5050505f8081548092919061015f90610b24565b91905055505050565b5f6060805f610176856103ce565b90506001818154811061018c5761018b610b6b565b5b905f5260205f2090600302015f0154600182815481106101af576101ae610b6b565b5b905f5260205f209060030201600101600183815481106101d2576101d1610b6b565b5b905f5260205f2090600302016002018180546101ed9061085b565b80601f01602080910402602001604051908101604052809291908181526020018280546102199061085b565b80156102645780601f1061023b57610100808354040283529160200191610264565b820191905f5260205f20905b81548152906001019060200180831161024757829003601f168201915b505050505091508080546102779061085b565b80601f01602080910402602001604051908101604052809291908181526020018280546102a39061085b565b80156102ee5780601f106102c5576101008083540402835291602001916102ee565b820191905f5260205f20905b8154815290600101906020018083116102d157829003601f168201915b50505050509050935093509350509193909250565b5f61030d826103ce565b90506001818154811061032357610322610b6b565b5b905f5260205f2090600302015f8082015f9055600182015f6103459190610461565b600282015f6103549190610461565b50505050565b5f610364846103ce565b9050826001828154811061037b5761037a610b6b565b5b905f5260205f20906003020160010190816103969190610a28565b5081600182815481106103ac576103ab610b6b565b5b905f5260205f20906003020160020190816103c79190610a28565b5050505050565b5f805f90505b6001805490508110156104205782600182815481106103f6576103f5610b6b565b5b905f5260205f2090600302015f015403610413578091505061045c565b80806001019150506103d4565b506040517f08c379a000000000000000000000000000000000000000000000000000000000815260040161045390610be2565b60405180910390fd5b919050565b50805461046d9061085b565b5f825580601f1061047e575061049b565b601f0160209004905f5260205f209081019061049a919061049e565b5b50565b5b808211156104b5575f815f90555060010161049f565b5090565b5f604051905090565b5f80fd5b5f80fd5b5f80fd5b5f80fd5b5f601f19601f8301169050919050565b7f4e487b71000000000000000000000000000000000000000000000000000000005f52604160045260245ffd5b610518826104d2565b810181811067ffffffffffffffff82111715610537576105366104e2565b5b80604052505050565b5f6105496104b9565b9050610555828261050f565b919050565b5f67ffffffffffffffff821115610574576105736104e2565b5b61057d826104d2565b9050602081019050919050565b828183375f83830152505050565b5f6105aa6105a58461055a565b610540565b9050828152602081018484840111156105c6576105c56104ce565b5b6105d184828561058a565b509392505050565b5f82601f8301126105ed576105ec6104ca565b5b81356105fd848260208601610598565b91505092915050565b5f806040838503121561061c5761061b6104c2565b5b5f83013567ffffffffffffffff811115610639576106386104c6565b5b610645858286016105d9565b925050602083013567ffffffffffffffff811115610666576106656104c6565b5b610672858286016105d9565b9150509250929050565b5f819050919050565b61068e8161067c565b8114610698575f80fd5b50565b5f813590506106a981610685565b92915050565b5f602082840312156106c4576106c36104c2565b5b5f6106d18482850161069b565b91505092915050565b6106e38161067c565b82525050565b5f81519050919050565b5f82825260208201905092915050565b5f5b83811015610720578082015181840152602081019050610705565b5f8484015250505050565b5f610735826106e9565b61073f81856106f3565b935061074f818560208601610703565b610758816104d2565b840191505092915050565b5f6060820190506107765f8301866106da565b8181036020830152610788818561072b565b9050818103604083015261079c818461072b565b9050949350505050565b5f805f606084860312156107bd576107bc6104c2565b5b5f6107ca8682870161069b565b935050602084013567ffffffffffffffff8111156107eb576107ea6104c6565b5b6107f7868287016105d9565b925050604084013567ffffffffffffffff811115610818576108176104c6565b5b610824868287016105d9565b9150509250925092565b7f4e487b71000000000000000000000000000000000000000000000000000000005f52602260045260245ffd5b5f600282049050600182168061087257607f821691505b6020821081036108855761088461082e565b5b50919050565b5f819050815f5260205f209050919050565b5f6020601f8301049050919050565b5f82821b905092915050565b5f600883026108e77fffffffffffffffffffffffffffffffffffffffffffffffffffffffffffffffff826108ac565b6108f186836108ac565b95508019841693508086168417925050509392505050565b5f819050919050565b5f61092c6109276109228461067c565b610909565b61067c565b9050919050565b5f819050919050565b61094583610912565b61095961095182610933565b8484546108b8565b825550505050565b5f90565b61096d610961565b61097881848461093c565b505050565b5b8181101561099b576109905f82610965565b60018101905061097e565b5050565b601f8211156109e0576109b18161088b565b6109ba8461089d565b810160208510156109c9578190505b6109dd6109d58561089d565b83018261097d565b50505b505050565b5f82821c905092915050565b5f610a005f19846008026109e5565b1980831691505092915050565b5f610a1883836109f1565b9150826002028217905092915050565b610a31826106e9565b67ffffffffffffffff811115610a4a57610a496104e2565b5b610a54825461085b565b610a5f82828561099f565b5f60209050601f831160018114610a90575f8415610a7e578287015190505b610a888582610a0d565b865550610aef565b601f198416610a9e8661088b565b5f5b82811015610ac557848901518255600182019150602085019450602081019050610aa0565b86831015610ae25784890151610ade601f8916826109f1565b8355505b6001600288020188555050505b505050505050565b7f4e487b71000000000000000000000000000000000000000000000000000000005f52601160045260245ffd5b5f610b2e8261067c565b91507fffffffffffffffffffffffffffffffffffffffffffffffffffffffffffffffff8203610b6057610b5f610af7565b5b600182019050919050565b7f4e487b71000000000000000000000000000000000000000000000000000000005f52603260045260245ffd5b7f5461736b206e6f7420666f756e640000000000000000000000000000000000005f82015250565b5f610bcc600e836106f3565b9150610bd782610b98565b602082019050919050565b5f6020820190508181035f830152610bf981610bc0565b905091905056fea2646970667358221220f8849768bd13bf427a31e7caa749473f547283ba133ecaf4a54f9e1863c4759364736f6c63430008180033",
			"opcodes": "PUSH1 0x80 PUSH1 0x40 MSTORE CALLVALUE DUP1 ISZERO PUSH2 0xF JUMPI PUSH0 DUP1 REVERT JUMPDEST POP PUSH2 0xC36 DUP1 PUSH2 0x1D PUSH0 CODECOPY PUSH0 RETURN INVALID PUSH1 0x80 PUSH1 0x40 MSTORE CALLVALUE DUP1 ISZERO PUSH2 0xF JUMPI PUSH0 DUP1 REVERT JUMPDEST POP PUSH1 0x4 CALLDATASIZE LT PUSH2 0x4A JUMPI PUSH0 CALLDATALOAD PUSH1 0xE0 SHR DUP1 PUSH4 0x292A4585 EQ PUSH2 0x4E JUMPI DUP1 PUSH4 0xAB755FAF EQ PUSH2 0x6A JUMPI DUP1 PUSH4 0xC6F1532A EQ PUSH2 0x9C JUMPI DUP1 PUSH4 0xC72EF41F EQ PUSH2 0xB8 JUMPI JUMPDEST PUSH0 DUP1 REVERT JUMPDEST PUSH2 0x68 PUSH1 0x4 DUP1 CALLDATASIZE SUB DUP2 ADD SWAP1 PUSH2 0x63 SWAP2 SWAP1 PUSH2 0x606 JUMP JUMPDEST PUSH2 0xD4 JUMP JUMPDEST STOP JUMPDEST PUSH2 0x84 PUSH1 0x4 DUP1 CALLDATASIZE SUB DUP2 ADD SWAP1 PUSH2 0x7F SWAP2 SWAP1 PUSH2 0x6AF JUMP JUMPDEST PUSH2 0x168 JUMP JUMPDEST PUSH1 0x40 MLOAD PUSH2 0x93 SWAP4 SWAP3 SWAP2 SWAP1 PUSH2 0x763 JUMP JUMPDEST PUSH1 0x40 MLOAD DUP1 SWAP2 SUB SWAP1 RETURN JUMPDEST PUSH2 0xB6 PUSH1 0x4 DUP1 CALLDATASIZE SUB DUP2 ADD SWAP1 PUSH2 0xB1 SWAP2 SWAP1 PUSH2 0x6AF JUMP JUMPDEST PUSH2 0x303 JUMP JUMPDEST STOP JUMPDEST PUSH2 0xD2 PUSH1 0x4 DUP1 CALLDATASIZE SUB DUP2 ADD SWAP1 PUSH2 0xCD SWAP2 SWAP1 PUSH2 0x7A6 JUMP JUMPDEST PUSH2 0x35A JUMP JUMPDEST STOP JUMPDEST PUSH1 0x1 PUSH1 0x40 MLOAD DUP1 PUSH1 0x60 ADD PUSH1 0x40 MSTORE DUP1 PUSH0 SLOAD DUP2 MSTORE PUSH1 0x20 ADD DUP5 DUP2 MSTORE PUSH1 0x20 ADD DUP4 DUP2 MSTORE POP SWAP1 DUP1 PUSH1 0x1 DUP2 SLOAD ADD DUP1 DUP3 SSTORE DUP1 SWAP2 POP POP PUSH1 0x1 SWAP1 SUB SWAP1 PUSH0 MSTORE PUSH1 0x20 PUSH0 KECCAK256 SWAP1 PUSH1 0x3 MUL ADD PUSH0 SWAP1 SWAP2 SWAP1 SWAP2 SWAP1 SWAP2 POP PUSH0 DUP3 ADD MLOAD DUP2 PUSH0 ADD SSTORE PUSH1 0x20 DUP3 ADD MLOAD DUP2 PUSH1 0x1 ADD SWAP1 DUP2 PUSH2 0x135 SWAP2 SWAP1 PUSH2 0xA28 JUMP JUMPDEST POP PUSH1 0x40 DUP3 ADD MLOAD DUP2 PUSH1 0x2 ADD SWAP1 DUP2 PUSH2 0x14B SWAP2 SWAP1 PUSH2 0xA28 JUMP JUMPDEST POP POP POP PUSH0 DUP1 DUP2 SLOAD DUP1 SWAP3 SWAP2 SWAP1 PUSH2 0x15F SWAP1 PUSH2 0xB24 JUMP JUMPDEST SWAP2 SWAP1 POP SSTORE POP POP POP JUMP JUMPDEST PUSH0 PUSH1 0x60 DUP1 PUSH0 PUSH2 0x176 DUP6 PUSH2 0x3CE JUMP JUMPDEST SWAP1 POP PUSH1 0x1 DUP2 DUP2 SLOAD DUP2 LT PUSH2 0x18C JUMPI PUSH2 0x18B PUSH2 0xB6B JUMP JUMPDEST JUMPDEST SWAP1 PUSH0 MSTORE PUSH1 0x20 PUSH0 KECCAK256 SWAP1 PUSH1 0x3 MUL ADD PUSH0 ADD SLOAD PUSH1 0x1 DUP3 DUP2 SLOAD DUP2 LT PUSH2 0x1AF JUMPI PUSH2 0x1AE PUSH2 0xB6B JUMP JUMPDEST JUMPDEST SWAP1 PUSH0 MSTORE PUSH1 0x20 PUSH0 KECCAK256 SWAP1 PUSH1 0x3 MUL ADD PUSH1 0x1 ADD PUSH1 0x1 DUP4 DUP2 SLOAD DUP2 LT PUSH2 0x1D2 JUMPI PUSH2 0x1D1 PUSH2 0xB6B JUMP JUMPDEST JUMPDEST SWAP1 PUSH0 MSTORE PUSH1 0x20 PUSH0 KECCAK256 SWAP1 PUSH1 0x3 MUL ADD PUSH1 0x2 ADD DUP2 DUP1 SLOAD PUSH2 0x1ED SWAP1 PUSH2 0x85B JUMP JUMPDEST DUP1 PUSH1 0x1F ADD PUSH1 0x20 DUP1 SWAP2 DIV MUL PUSH1 0x20 ADD PUSH1 0x40 MLOAD SWAP1 DUP2 ADD PUSH1 0x40 MSTORE DUP1 SWAP3 SWAP2 SWAP1 DUP2 DUP2 MSTORE PUSH1 0x20 ADD DUP3 DUP1 SLOAD PUSH2 0x219 SWAP1 PUSH2 0x85B JUMP JUMPDEST DUP1 ISZERO PUSH2 0x264 JUMPI DUP1 PUSH1 0x1F LT PUSH2 0x23B JUMPI PUSH2 0x100 DUP1 DUP4 SLOAD DIV MUL DUP4 MSTORE SWAP2 PUSH1 0x20 ADD SWAP2 PUSH2 0x264 JUMP JUMPDEST DUP3 ADD SWAP2 SWAP1 PUSH0 MSTORE PUSH1 0x20 PUSH0 KECCAK256 SWAP1 JUMPDEST DUP2 SLOAD DUP2 MSTORE SWAP1 PUSH1 0x1 ADD SWAP1 PUSH1 0x20 ADD DUP1 DUP4 GT PUSH2 0x247 JUMPI DUP3 SWAP1 SUB PUSH1 0x1F AND DUP3 ADD SWAP2 JUMPDEST POP POP POP POP POP SWAP2 POP DUP1 DUP1 SLOAD PUSH2 0x277 SWAP1 PUSH2 0x85B JUMP JUMPDEST DUP1 PUSH1 0x1F ADD PUSH1 0x20 DUP1 SWAP2 DIV MUL PUSH1 0x20 ADD PUSH1 0x40 MLOAD SWAP1 DUP2 ADD PUSH1 0x40 MSTORE DUP1 SWAP3 SWAP2 SWAP1 DUP2 DUP2 MSTORE PUSH1 0x20 ADD DUP3 DUP1 SLOAD PUSH2 0x2A3 SWAP1 PUSH2 0x85B JUMP JUMPDEST DUP1 ISZERO PUSH2 0x2EE JUMPI DUP1 PUSH1 0x1F LT PUSH2 0x2C5 JUMPI PUSH2 0x100 DUP1 DUP4 SLOAD DIV MUL DUP4 MSTORE SWAP2 PUSH1 0x20 ADD SWAP2 PUSH2 0x2EE JUMP JUMPDEST DUP3 ADD SWAP2 SWAP1 PUSH0 MSTORE PUSH1 0x20 PUSH0 KECCAK256 SWAP1 JUMPDEST DUP2 SLOAD DUP2 MSTORE SWAP1 PUSH1 0x1 ADD SWAP1 PUSH1 0x20 ADD DUP1 DUP4 GT PUSH2 0x2D1 JUMPI DUP3 SWAP1 SUB PUSH1 0x1F AND DUP3 ADD SWAP2 JUMPDEST POP POP POP POP POP SWAP1 POP SWAP4 POP SWAP4 POP SWAP4 POP POP SWAP2 SWAP4 SWAP1 SWAP3 POP JUMP JUMPDEST PUSH0 PUSH2 0x30D DUP3 PUSH2 0x3CE JUMP JUMPDEST SWAP1 POP PUSH1 0x1 DUP2 DUP2 SLOAD DUP2 LT PUSH2 0x323 JUMPI PUSH2 0x322 PUSH2 0xB6B JUMP JUMPDEST JUMPDEST SWAP1 PUSH0 MSTORE PUSH1 0x20 PUSH0 KECCAK256 SWAP1 PUSH1 0x3 MUL ADD PUSH0 DUP1 DUP3 ADD PUSH0 SWAP1 SSTORE PUSH1 0x1 DUP3 ADD PUSH0 PUSH2 0x345 SWAP2 SWAP1 PUSH2 0x461 JUMP JUMPDEST PUSH1 0x2 DUP3 ADD PUSH0 PUSH2 0x354 SWAP2 SWAP1 PUSH2 0x461 JUMP JUMPDEST POP POP POP POP JUMP JUMPDEST PUSH0 PUSH2 0x364 DUP5 PUSH2 0x3CE JUMP JUMPDEST SWAP1 POP DUP3 PUSH1 0x1 DUP3 DUP2 SLOAD DUP2 LT PUSH2 0x37B JUMPI PUSH2 0x37A PUSH2 0xB6B JUMP JUMPDEST JUMPDEST SWAP1 PUSH0 MSTORE PUSH1 0x20 PUSH0 KECCAK256 SWAP1 PUSH1 0x3 MUL ADD PUSH1 0x1 ADD SWAP1 DUP2 PUSH2 0x396 SWAP2 SWAP1 PUSH2 0xA28 JUMP JUMPDEST POP DUP2 PUSH1 0x1 DUP3 DUP2 SLOAD DUP2 LT PUSH2 0x3AC JUMPI PUSH2 0x3AB PUSH2 0xB6B JUMP JUMPDEST JUMPDEST SWAP1 PUSH0 MSTORE PUSH1 0x20 PUSH0 KECCAK256 SWAP1 PUSH1 0x3 MUL ADD PUSH1 0x2 ADD SWAP1 DUP2 PUSH2 0x3C7 SWAP2 SWAP1 PUSH2 0xA28 JUMP JUMPDEST POP POP POP POP POP JUMP JUMPDEST PUSH0 DUP1 PUSH0 SWAP1 POP JUMPDEST PUSH1 0x1 DUP1 SLOAD SWAP1 POP DUP2 LT ISZERO PUSH2 0x420 JUMPI DUP3 PUSH1 0x1 DUP3 DUP2 SLOAD DUP2 LT PUSH2 0x3F6 JUMPI PUSH2 0x3F5 PUSH2 0xB6B JUMP JUMPDEST JUMPDEST SWAP1 PUSH0 MSTORE PUSH1 0x20 PUSH0 KECCAK256 SWAP1 PUSH1 0x3 MUL ADD PUSH0 ADD SLOAD SUB PUSH2 0x413 JUMPI DUP1 SWAP2 POP POP PUSH2 0x45C JUMP JUMPDEST DUP1 DUP1 PUSH1 0x1 ADD SWAP2 POP POP PUSH2 0x3D4 JUMP JUMPDEST POP PUSH1 0x40 MLOAD PUSH32 0x8C379A000000000000000000000000000000000000000000000000000000000 DUP2 MSTORE PUSH1 0x4 ADD PUSH2 0x453 SWAP1 PUSH2 0xBE2 JUMP JUMPDEST PUSH1 0x40 MLOAD DUP1 SWAP2 SUB SWAP1 REVERT JUMPDEST SWAP2 SWAP1 POP JUMP JUMPDEST POP DUP1 SLOAD PUSH2 0x46D SWAP1 PUSH2 0x85B JUMP JUMPDEST PUSH0 DUP3 SSTORE DUP1 PUSH1 0x1F LT PUSH2 0x47E JUMPI POP PUSH2 0x49B JUMP JUMPDEST PUSH1 0x1F ADD PUSH1 0x20 SWAP1 DIV SWAP1 PUSH0 MSTORE PUSH1 0x20 PUSH0 KECCAK256 SWAP1 DUP2 ADD SWAP1 PUSH2 0x49A SWAP2 SWAP1 PUSH2 0x49E JUMP JUMPDEST JUMPDEST POP JUMP JUMPDEST JUMPDEST DUP1 DUP3 GT ISZERO PUSH2 0x4B5 JUMPI PUSH0 DUP2 PUSH0 SWAP1 SSTORE POP PUSH1 0x1 ADD PUSH2 0x49F JUMP JUMPDEST POP SWAP1 JUMP JUMPDEST PUSH0 PUSH1 0x40 MLOAD SWAP1 POP SWAP1 JUMP JUMPDEST PUSH0 DUP1 REVERT JUMPDEST PUSH0 DUP1 REVERT JUMPDEST PUSH0 DUP1 REVERT JUMPDEST PUSH0 DUP1 REVERT JUMPDEST PUSH0 PUSH1 0x1F NOT PUSH1 0x1F DUP4 ADD AND SWAP1 POP SWAP2 SWAP1 POP JUMP JUMPDEST PUSH32 0x4E487B7100000000000000000000000000000000000000000000000000000000 PUSH0 MSTORE PUSH1 0x41 PUSH1 0x4 MSTORE PUSH1 0x24 PUSH0 REVERT JUMPDEST PUSH2 0x518 DUP3 PUSH2 0x4D2 JUMP JUMPDEST DUP2 ADD DUP2 DUP2 LT PUSH8 0xFFFFFFFFFFFFFFFF DUP3 GT OR ISZERO PUSH2 0x537 JUMPI PUSH2 0x536 PUSH2 0x4E2 JUMP JUMPDEST JUMPDEST DUP1 PUSH1 0x40 MSTORE POP POP POP JUMP JUMPDEST PUSH0 PUSH2 0x549 PUSH2 0x4B9 JUMP JUMPDEST SWAP1 POP PUSH2 0x555 DUP3 DUP3 PUSH2 0x50F JUMP JUMPDEST SWAP2 SWAP1 POP JUMP JUMPDEST PUSH0 PUSH8 0xFFFFFFFFFFFFFFFF DUP3 GT ISZERO PUSH2 0x574 JUMPI PUSH2 0x573 PUSH2 0x4E2 JUMP JUMPDEST JUMPDEST PUSH2 0x57D DUP3 PUSH2 0x4D2 JUMP JUMPDEST SWAP1 POP PUSH1 0x20 DUP2 ADD SWAP1 POP SWAP2 SWAP1 POP JUMP JUMPDEST DUP3 DUP2 DUP4 CALLDATACOPY PUSH0 DUP4 DUP4 ADD MSTORE POP POP POP JUMP JUMPDEST PUSH0 PUSH2 0x5AA PUSH2 0x5A5 DUP5 PUSH2 0x55A JUMP JUMPDEST PUSH2 0x540 JUMP JUMPDEST SWAP1 POP DUP3 DUP2 MSTORE PUSH1 0x20 DUP2 ADD DUP5 DUP5 DUP5 ADD GT ISZERO PUSH2 0x5C6 JUMPI PUSH2 0x5C5 PUSH2 0x4CE JUMP JUMPDEST JUMPDEST PUSH2 0x5D1 DUP5 DUP3 DUP6 PUSH2 0x58A JUMP JUMPDEST POP SWAP4 SWAP3 POP POP POP JUMP JUMPDEST PUSH0 DUP3 PUSH1 0x1F DUP4 ADD SLT PUSH2 0x5ED JUMPI PUSH2 0x5EC PUSH2 0x4CA JUMP JUMPDEST JUMPDEST DUP2 CALLDATALOAD PUSH2 0x5FD DUP5 DUP3 PUSH1 0x20 DUP7 ADD PUSH2 0x598 JUMP JUMPDEST SWAP2 POP POP SWAP3 SWAP2 POP POP JUMP JUMPDEST PUSH0 DUP1 PUSH1 0x40 DUP4 DUP6 SUB SLT ISZERO PUSH2 0x61C JUMPI PUSH2 0x61B PUSH2 0x4C2 JUMP JUMPDEST JUMPDEST PUSH0 DUP4 ADD CALLDATALOAD PUSH8 0xFFFFFFFFFFFFFFFF DUP2 GT ISZERO PUSH2 0x639 JUMPI PUSH2 0x638 PUSH2 0x4C6 JUMP JUMPDEST JUMPDEST PUSH2 0x645 DUP6 DUP3 DUP7 ADD PUSH2 0x5D9 JUMP JUMPDEST SWAP3 POP POP PUSH1 0x20 DUP4 ADD CALLDATALOAD PUSH8 0xFFFFFFFFFFFFFFFF DUP2 GT ISZERO PUSH2 0x666 JUMPI PUSH2 0x665 PUSH2 0x4C6 JUMP JUMPDEST JUMPDEST PUSH2 0x672 DUP6 DUP3 DUP7 ADD PUSH2 0x5D9 JUMP JUMPDEST SWAP2 POP POP SWAP3 POP SWAP3 SWAP1 POP JUMP JUMPDEST PUSH0 DUP2 SWAP1 POP SWAP2 SWAP1 POP JUMP JUMPDEST PUSH2 0x68E DUP2 PUSH2 0x67C JUMP JUMPDEST DUP2 EQ PUSH2 0x698 JUMPI PUSH0 DUP1 REVERT JUMPDEST POP JUMP JUMPDEST PUSH0 DUP2 CALLDATALOAD SWAP1 POP PUSH2 0x6A9 DUP2 PUSH2 0x685 JUMP JUMPDEST SWAP3 SWAP2 POP POP JUMP JUMPDEST PUSH0 PUSH1 0x20 DUP3 DUP5 SUB SLT ISZERO PUSH2 0x6C4 JUMPI PUSH2 0x6C3 PUSH2 0x4C2 JUMP JUMPDEST JUMPDEST PUSH0 PUSH2 0x6D1 DUP5 DUP3 DUP6 ADD PUSH2 0x69B JUMP JUMPDEST SWAP2 POP POP SWAP3 SWAP2 POP POP JUMP JUMPDEST PUSH2 0x6E3 DUP2 PUSH2 0x67C JUMP JUMPDEST DUP3 MSTORE POP POP JUMP JUMPDEST PUSH0 DUP2 MLOAD SWAP1 POP SWAP2 SWAP1 POP JUMP JUMPDEST PUSH0 DUP3 DUP3 MSTORE PUSH1 0x20 DUP3 ADD SWAP1 POP SWAP3 SWAP2 POP POP JUMP JUMPDEST PUSH0 JUMPDEST DUP4 DUP2 LT ISZERO PUSH2 0x720 JUMPI DUP1 DUP3 ADD MLOAD DUP2 DUP5 ADD MSTORE PUSH1 0x20 DUP2 ADD SWAP1 POP PUSH2 0x705 JUMP JUMPDEST PUSH0 DUP5 DUP5 ADD MSTORE POP POP POP POP JUMP JUMPDEST PUSH0 PUSH2 0x735 DUP3 PUSH2 0x6E9 JUMP JUMPDEST PUSH2 0x73F DUP2 DUP6 PUSH2 0x6F3 JUMP JUMPDEST SWAP4 POP PUSH2 0x74F DUP2 DUP6 PUSH1 0x20 DUP7 ADD PUSH2 0x703 JUMP JUMPDEST PUSH2 0x758 DUP2 PUSH2 0x4D2 JUMP JUMPDEST DUP5 ADD SWAP2 POP POP SWAP3 SWAP2 POP POP JUMP JUMPDEST PUSH0 PUSH1 0x60 DUP3 ADD SWAP1 POP PUSH2 0x776 PUSH0 DUP4 ADD DUP7 PUSH2 0x6DA JUMP JUMPDEST DUP2 DUP2 SUB PUSH1 0x20 DUP4 ADD MSTORE PUSH2 0x788 DUP2 DUP6 PUSH2 0x72B JUMP JUMPDEST SWAP1 POP DUP2 DUP2 SUB PUSH1 0x40 DUP4 ADD MSTORE PUSH2 0x79C DUP2 DUP5 PUSH2 0x72B JUMP JUMPDEST SWAP1 POP SWAP5 SWAP4 POP POP POP POP JUMP JUMPDEST PUSH0 DUP1 PUSH0 PUSH1 0x60 DUP5 DUP7 SUB SLT ISZERO PUSH2 0x7BD JUMPI PUSH2 0x7BC PUSH2 0x4C2 JUMP JUMPDEST JUMPDEST PUSH0 PUSH2 0x7CA DUP7 DUP3 DUP8 ADD PUSH2 0x69B JUMP JUMPDEST SWAP4 POP POP PUSH1 0x20 DUP5 ADD CALLDATALOAD PUSH8 0xFFFFFFFFFFFFFFFF DUP2 GT ISZERO PUSH2 0x7EB JUMPI PUSH2 0x7EA PUSH2 0x4C6 JUMP JUMPDEST JUMPDEST PUSH2 0x7F7 DUP7 DUP3 DUP8 ADD PUSH2 0x5D9 JUMP JUMPDEST SWAP3 POP POP PUSH1 0x40 DUP5 ADD CALLDATALOAD PUSH8 0xFFFFFFFFFFFFFFFF DUP2 GT ISZERO PUSH2 0x818 JUMPI PUSH2 0x817 PUSH2 0x4C6 JUMP JUMPDEST JUMPDEST PUSH2 0x824 DUP7 DUP3 DUP8 ADD PUSH2 0x5D9 JUMP JUMPDEST SWAP2 POP POP SWAP3 POP SWAP3 POP SWAP3 JUMP JUMPDEST PUSH32 0x4E487B7100000000000000000000000000000000000000000000000000000000 PUSH0 MSTORE PUSH1 0x22 PUSH1 0x4 MSTORE PUSH1 0x24 PUSH0 REVERT JUMPDEST PUSH0 PUSH1 0x2 DUP3 DIV SWAP1 POP PUSH1 0x1 DUP3 AND DUP1 PUSH2 0x872 JUMPI PUSH1 0x7F DUP3 AND SWAP2 POP JUMPDEST PUSH1 0x20 DUP3 LT DUP2 SUB PUSH2 0x885 JUMPI PUSH2 0x884 PUSH2 0x82E JUMP JUMPDEST JUMPDEST POP SWAP2 SWAP1 POP JUMP JUMPDEST PUSH0 DUP2 SWAP1 POP DUP2 PUSH0 MSTORE PUSH1 0x20 PUSH0 KECCAK256 SWAP1 POP SWAP2 SWAP1 POP JUMP JUMPDEST PUSH0 PUSH1 0x20 PUSH1 0x1F DUP4 ADD DIV SWAP1 POP SWAP2 SWAP1 POP JUMP JUMPDEST PUSH0 DUP3 DUP3 SHL SWAP1 POP SWAP3 SWAP2 POP POP JUMP JUMPDEST PUSH0 PUSH1 0x8 DUP4 MUL PUSH2 0x8E7 PUSH32 0xFFFFFFFFFFFFFFFFFFFFFFFFFFFFFFFFFFFFFFFFFFFFFFFFFFFFFFFFFFFFFFFF DUP3 PUSH2 0x8AC JUMP JUMPDEST PUSH2 0x8F1 DUP7 DUP4 PUSH2 0x8AC JUMP JUMPDEST SWAP6 POP DUP1 NOT DUP5 AND SWAP4 POP DUP1 DUP7 AND DUP5 OR SWAP3 POP POP POP SWAP4 SWAP3 POP POP POP JUMP JUMPDEST PUSH0 DUP2 SWAP1 POP SWAP2 SWAP1 POP JUMP JUMPDEST PUSH0 PUSH2 0x92C PUSH2 0x927 PUSH2 0x922 DUP5 PUSH2 0x67C JUMP JUMPDEST PUSH2 0x909 JUMP JUMPDEST PUSH2 0x67C JUMP JUMPDEST SWAP1 POP SWAP2 SWAP1 POP JUMP JUMPDEST PUSH0 DUP2 SWAP1 POP SWAP2 SWAP1 POP JUMP JUMPDEST PUSH2 0x945 DUP4 PUSH2 0x912 JUMP JUMPDEST PUSH2 0x959 PUSH2 0x951 DUP3 PUSH2 0x933 JUMP JUMPDEST DUP5 DUP5 SLOAD PUSH2 0x8B8 JUMP JUMPDEST DUP3 SSTORE POP POP POP POP JUMP JUMPDEST PUSH0 SWAP1 JUMP JUMPDEST PUSH2 0x96D PUSH2 0x961 JUMP JUMPDEST PUSH2 0x978 DUP2 DUP5 DUP5 PUSH2 0x93C JUMP JUMPDEST POP POP POP JUMP JUMPDEST JUMPDEST DUP2 DUP2 LT ISZERO PUSH2 0x99B JUMPI PUSH2 0x990 PUSH0 DUP3 PUSH2 0x965 JUMP JUMPDEST PUSH1 0x1 DUP2 ADD SWAP1 POP PUSH2 0x97E JUMP JUMPDEST POP POP JUMP JUMPDEST PUSH1 0x1F DUP3 GT ISZERO PUSH2 0x9E0 JUMPI PUSH2 0x9B1 DUP2 PUSH2 0x88B JUMP JUMPDEST PUSH2 0x9BA DUP5 PUSH2 0x89D JUMP JUMPDEST DUP2 ADD PUSH1 0x20 DUP6 LT ISZERO PUSH2 0x9C9 JUMPI DUP2 SWAP1 POP JUMPDEST PUSH2 0x9DD PUSH2 0x9D5 DUP6 PUSH2 0x89D JUMP JUMPDEST DUP4 ADD DUP3 PUSH2 0x97D JUMP JUMPDEST POP POP JUMPDEST POP POP POP JUMP JUMPDEST PUSH0 DUP3 DUP3 SHR SWAP1 POP SWAP3 SWAP2 POP POP JUMP JUMPDEST PUSH0 PUSH2 0xA00 PUSH0 NOT DUP5 PUSH1 0x8 MUL PUSH2 0x9E5 JUMP JUMPDEST NOT DUP1 DUP4 AND SWAP2 POP POP SWAP3 SWAP2 POP POP JUMP JUMPDEST PUSH0 PUSH2 0xA18 DUP4 DUP4 PUSH2 0x9F1 JUMP JUMPDEST SWAP2 POP DUP3 PUSH1 0x2 MUL DUP3 OR SWAP1 POP SWAP3 SWAP2 POP POP JUMP JUMPDEST PUSH2 0xA31 DUP3 PUSH2 0x6E9 JUMP JUMPDEST PUSH8 0xFFFFFFFFFFFFFFFF DUP2 GT ISZERO PUSH2 0xA4A JUMPI PUSH2 0xA49 PUSH2 0x4E2 JUMP JUMPDEST JUMPDEST PUSH2 0xA54 DUP3 SLOAD PUSH2 0x85B JUMP JUMPDEST PUSH2 0xA5F DUP3 DUP3 DUP6 PUSH2 0x99F JUMP JUMPDEST PUSH0 PUSH1 0x20 SWAP1 POP PUSH1 0x1F DUP4 GT PUSH1 0x1 DUP2 EQ PUSH2 0xA90 JUMPI PUSH0 DUP5 ISZERO PUSH2 0xA7E JUMPI DUP3 DUP8 ADD MLOAD SWAP1 POP JUMPDEST PUSH2 0xA88 DUP6 DUP3 PUSH2 0xA0D JUMP JUMPDEST DUP7 SSTORE POP PUSH2 0xAEF JUMP JUMPDEST PUSH1 0x1F NOT DUP5 AND PUSH2 0xA9E DUP7 PUSH2 0x88B JUMP JUMPDEST PUSH0 JUMPDEST DUP3 DUP2 LT ISZERO PUSH2 0xAC5 JUMPI DUP5 DUP10 ADD MLOAD DUP3 SSTORE PUSH1 0x1 DUP3 ADD SWAP2 POP PUSH1 0x20 DUP6 ADD SWAP5 POP PUSH1 0x20 DUP2 ADD SWAP1 POP PUSH2 0xAA0 JUMP JUMPDEST DUP7 DUP4 LT ISZERO PUSH2 0xAE2 JUMPI DUP5 DUP10 ADD MLOAD PUSH2 0xADE PUSH1 0x1F DUP10 AND DUP3 PUSH2 0x9F1 JUMP JUMPDEST DUP4 SSTORE POP JUMPDEST PUSH1 0x1 PUSH1 0x2 DUP9 MUL ADD DUP9 SSTORE POP POP POP JUMPDEST POP POP POP POP POP POP JUMP JUMPDEST PUSH32 0x4E487B7100000000000000000000000000000000000000000000000000000000 PUSH0 MSTORE PUSH1 0x11 PUSH1 0x4 MSTORE PUSH1 0x24 PUSH0 REVERT JUMPDEST PUSH0 PUSH2 0xB2E DUP3 PUSH2 0x67C JUMP JUMPDEST SWAP2 POP PUSH32 0xFFFFFFFFFFFFFFFFFFFFFFFFFFFFFFFFFFFFFFFFFFFFFFFFFFFFFFFFFFFFFFFF DUP3 SUB PUSH2 0xB60 JUMPI PUSH2 0xB5F PUSH2 0xAF7 JUMP JUMPDEST JUMPDEST PUSH1 0x1 DUP3 ADD SWAP1 POP SWAP2 SWAP1 POP JUMP JUMPDEST PUSH32 0x4E487B7100000000000000000000000000000000000000000000000000000000 PUSH0 MSTORE PUSH1 0x32 PUSH1 0x4 MSTORE PUSH1 0x24 PUSH0 REVERT JUMPDEST PUSH32 0x5461736B206E6F7420666F756E64000000000000000000000000000000000000 PUSH0 DUP3 ADD MSTORE POP JUMP JUMPDEST PUSH0 PUSH2 0xBCC PUSH1 0xE DUP4 PUSH2 0x6F3 JUMP JUMPDEST SWAP2 POP PUSH2 0xBD7 DUP3 PUSH2 0xB98 JUMP JUMPDEST PUSH1 0x20 DUP3 ADD SWAP1 POP SWAP2 SWAP1 POP JUMP JUMPDEST PUSH0 PUSH1 0x20 DUP3 ADD SWAP1 POP DUP2 DUP2 SUB PUSH0 DUP4 ADD MSTORE PUSH2 0xBF9 DUP2 PUSH2 0xBC0 JUMP JUMPDEST SWAP1 POP SWAP2 SWAP1 POP JUMP INVALID LOG2 PUSH5 0x6970667358 0x22 SLT KECCAK256 0xF8 DUP5 SWAP8 PUSH9 0xBD13BF427A31E7CAA7 BLOBHASH SELFBALANCE EXTCODEHASH SLOAD PUSH19 0x83BA133ECAF4A54F9E1863C4759364736F6C63 NUMBER STOP ADDMOD XOR STOP CALLER "
		},
		"gasEstimates": {
			"creation": {
				"codeDepositCost": "625200",
				"executionCost": "655",
				"totalCost": "625855"
			},
			"external": {
				"createTask(string,string)": "infinite",
				"readTask(uint256)": "infinite",
				"resetTask(uint256)": "infinite",
				"updateTask(uint256,string,string)": "infinite"
			},
			"internal": {
				"findIndex(uint256)": "infinite"
			}
		},
		"methodIdentifiers": {
			"createTask(string,string)": "292a4585",
			"readTask(uint256)": "ab755faf",
			"resetTask(uint256)": "c6f1532a",
			"updateTask(uint256,string,string)": "c72ef41f"
		}
	},
	"abi": [
		{
			"inputs": [
				{
					"internalType": "string",
					"name": "_name",
					"type": "string"
				},
				{
					"internalType": "string",
					"name": "_description",
					"type": "string"
				}
			],
			"name": "createTask",
			"outputs": [],
			"stateMutability": "nonpayable",
			"type": "function"
		},
		{
			"inputs": [
				{
					"internalType": "uint256",
					"name": "_id",
					"type": "uint256"
				}
			],
			"name": "readTask",
			"outputs": [
				{
					"internalType": "uint256",
					"name": "",
					"type": "uint256"
				},
				{
					"internalType": "string",
					"name": "",
					"type": "string"
				},
				{
					"internalType": "string",
					"name": "",
					"type": "string"
				}
			],
			"stateMutability": "view",
			"type": "function"
		},
		{
			"inputs": [
				{
					"internalType": "uint256",
					"name": "_id",
					"type": "uint256"
				}
			],
			"name": "resetTask",
			"outputs": [],
			"stateMutability": "nonpayable",
			"type": "function"
		},
		{
			"inputs": [
				{
					"internalType": "uint256",
					"name": "_id",
					"type": "uint256"
				},
				{
					"internalType": "string",
					"name": "_name",
					"type": "string"
				},
				{
					"internalType": "string",
					"name": "_description",
					"type": "string"
				}
			],
			"name": "updateTask",
			"outputs": [],
			"stateMutability": "nonpayable",
			"type": "function"
		}
	]
}